:020000040800F2
:100000008006002089010008910100089301000882
:100010009501000897010008990100080000000000
:100020000000000000000000000000009B0100082C
:100030009D010008000000009F0100082D0300083A
:10004000A3010008A3010008A3010008A301000800
:10005000A3010008A3010008A3010008A3010008F0
:10006000A3010008A3010008A3010008A3010008E0
:10007000A3010008A3010008A3010008A3010008D0
:10008000A3010008A3010008A3010008A3010008C0
:10009000A3010008A3010008A3010008A3010008B0
:1000A000A3010008A3010008A3010008A3010008A0
:1000B000A3010008A3010008A3010008A301000890
:1000C000A3010008A3010008A3010008A301000880
:1000D000A3010008A3010008A3010008A301000870
:1000E000A3010008A3010008A301000800F002F822
:1000F00000F03AF80AA090E8000C82448344AAF188
:100100000107DA4501D100F02FF8AFF2090EBAE885
:100110000F0013F0010F18BFFB1A43F0010318473B
:10012000D4030000F4030000103A24BF78C878C15B
:10013000FAD8520724BF30C830C144BF04680C60ED
:10014000704700000023002400250026103A28BF35
:1001500078C1FBD8520728BF30C148BF0B60704739
:100160001FB51FBD10B510BD00F031F81146FFF7E7
:10017000F7FF00F065F900F04FF803B4FFF7F2FF66
:1001800003BC00F057F800000948804709480047C1
:10019000FEE7FEE7FEE7FEE7FEE7FEE7FEE7FEE737
:1001A000FEE7FEE704480549054A064B7047000094
:1001B0003D030008ED0000088000002080060020BC
:1001C000800200208002002070477047704775460B
:1001D00000F02CF8AE4605006946534620F00700B3
:1001E000854618B020B5FFF7DDFFBDE820404FF091
:1001F00000064FF000074FF000084FF0000B21F011
:100200000701AC46ACE8C009ACE8C009ACE8C009DD
:10021000ACE8C0098D46704710B50446AFF30080C6
:100220002046BDE81040FFF7A8BF00000048704717
:100230002000002001491820ABBEFEE72600020086
:10024000704710B500F002F810BD00000CB500209A
:10025000019000903348006840F4803031490860D4
:1002600000BF3048006800F4003000900198401C46
:100270000190009818B90198B0F5A06FF1D1294804
:10028000006800F4003010B10120009001E000206F
:1002900000900098012843D12348006840F01000E6
:1002A000214908600846006820F0070008600846F9
:1002B000006840F0020008601A4840681949486028
:1002C0000846406848600846406840F480604860DE
:1002D0000846406820F47C1048600846406840F4B6
:1002E000E81048600846006840F08070086000BF71
:1002F0000C48006800F000700028F9D009484068F8
:1003000020F00300074948600846406840F00200BA
:10031000486000BF0348406800F00C000828F9D18D
:100320000CBD00000010024000200240024800689E
:10033000401C0149086070470000002010B51348B8
:10034000006840F001001149086008464068104903
:1003500008400E494860084600680E4908400B49AD
:1003600008600846006820F480200860084640685D
:1003700020F4FE0048604FF41F008860FFF761FF23
:100380004FF000600449086010BD000000100240FA
:100390000000FFF8FFFFF6FE08ED00E0044A1168D8
:1003A00000BF034A1268521A8242FAD37047000013
:1003B0000000002010B503464FF47A7093FBF0F074
:1003C0001B49C8804FF47A7093FBF0F100FB1130A9
:1003D000642190FBF1F016498880642093FBF0F1D2
:1003E00000FB11300A2190FBF1F0114948800A20EE
:1003F00093FBF0F100FB11300D490880002414E05C
:1004000004F10C00012181400A480160084830F8DD
:100410001400094931F81000084908600520FFF769
:10042000BDFF002003490860641C042CE8DB10BDFC
:10043000040000200C0C01400C0000200C080140BE
:100440002448806940F00C002249886122482349F1
:1004500008602348091D08602248234908604FF4BA
:10046000F2701E490C3108600F201F4908310860E6
:1004700042F22831481EB0F1807F00D31BE0481EB5
:100480004FF0E022506150170F22002807DA1307BF
:100490001D0E164B00F00F04241F1D5503E013071B
:1004A0001C0E134B1C5400BF00204FF0E022906143
:1004B0000720106100BF0CE0002406E0A0B2FFF7A7
:1004C00079FF6420FFF76AFF641C42F20F708442D8
:1004D000F4DBF1E700100240242222220008014050
:1004E0004244444444442222040C014018ED00E0FC
:1004F00000E400E0140500080000002020000000D7
:1005000028010008340500082000002060060000D3
:10051000440100080000000000000000000000008E
:10052000070E3F0F4B0E1B0E330F930E830E3F0E25
:04053000030E130E95
:04000005080000ED02
:00000001FF
