:020000040800F2
:100000009006002089010008910100089301000872
:100010009501000897010008990100080000000000
:100020000000000000000000000000009B0100082C
:100030009D010008000000009F0100086D040008F9
:10004000A3010008A3010008A3010008A301000800
:10005000A3010008A30100082D030008A301000864
:10006000A3010008A30100084D030008A301000834
:10007000A3010008A3010008A3010008A3010008D0
:10008000A3010008A301000845020008A30100081D
:10009000A3010008A3010008A3010008A3010008B0
:1000A000A3010008A3010008A3010008A3010008A0
:1000B000A3010008A3010008A3010008A301000890
:1000C000A3010008A3010008A3010008A301000880
:1000D000A3010008A3010008A3010008A301000870
:1000E000A3010008A3010008A301000800F002F822
:1000F00000F03AF80AA090E8000C82448344AAF188
:100100000107DA4501D100F02FF8AFF2090EBAE885
:100110000F0013F0010F18BFFB1A43F0010318473B
:10012000EC0D00000C0E0000103A24BF78C878C116
:10013000FAD8520724BF30C830C144BF04680C60ED
:10014000704700000023002400250026103A28BF35
:1001500078C1FBD8520728BF30C148BF0B60704739
:100160001FB51FBD10B510BD00F031F81146FFF7E7
:10017000F7FF00F037FA00F04FF803B4FFF7F2FF93
:1001800003BC00F057F800000948804709480047C1
:10019000FEE7FEE7FEE7FEE7FEE7FEE7FEE7FEE737
:1001A000FEE7FEE704480549054A064B7047000094
:1001B0007D040008ED00000890000020900600205B
:1001C00090020020900200207047704770477546EB
:1001D00000F02CF8AE4605006946534620F00700B3
:1001E000854618B020B5FFF7DDFFBDE820404FF091
:1001F00000064FF000074FF000084FF0000B21F011
:100200000701AC46ACE8C009ACE8C009ACE8C009DD
:10021000ACE8C0098D46704710B50446AFF30080C6
:100220002046BDE81040FFF7A8BF00000048704717
:100230003000002001491820ABBEFEE72600020076
:10024000704700002DE9F0410A49086800F000FEFF
:100250000746094900F03AFD044600F00BFD05464B
:100260004FF06632054B00F007FC054A03C2BDE8BB
:10027000F08100004C24014000F07F4566660A4092
:100280002800002010B51B48006820F00200194922
:1002900008600846006820F40060086000201549E6
:1002A00008310860092013492C3108601148001FEB
:1002B000006840F480700F49091F0860081D00683D
:1002C00040F46020091D0860081F006840F020000D
:1002D000091F086062B6122000F048F8054800685F
:1002E00040F00400034908600846006840F001003F
:1002F000086010BD082401400B48406840F4C0600D
:10030000094948600846806940F00D008861084648
:10031000C06940F03700C8610846806940F2092191
:100320000843014988617047001002400548006891
:1003300040F002000349086003480088401C02495D
:10034000088070471404014004000020054800683C
:1003500040F010000349086003480088401C02492F
:1003600008807047140401400400002000F01F02C0
:10037000012191404209920002F1E022C2F80011ED
:10038000704710B500F002F810BD00000CB5002059
:10039000019000903348006840F480303149086093
:1003A00000BF3048006800F4003000900198401C05
:1003B0000190009818B90198B0F5A06FF1D12948C3
:1003C000006800F4003010B10120009001E000202E
:1003D00000900098012843D12348006840F01000A5
:1003E000214908600846006820F0070008600846B8
:1003F000006840F0020008601A48406819494860E7
:100400000846406848600846406840F4806048609C
:100410000846406820F47C1048600846406840F474
:10042000E81048600846006840F08070086000BF2F
:100430000C48006800F000700028F9D009484068B6
:1004400020F00300074948600846406840F0020079
:10045000486000BF0348406800F00C000828F9D14C
:100460000CBD00000010024000200240024800685D
:10047000401C0149086070470000002010B5134877
:10048000006840F0010011490860084640681049C2
:1004900008400E494860084600680E4908400B496C
:1004A00008600846006820F480200860084640681C
:1004B00020F4FE0048604FF41F008860FFF761FFE2
:1004C0004FF000600449086010BD000000100240B9
:1004D0000000FFF8FFFFF6FE08ED00E01648C069D7
:1004E00040F004001449C86111201449088044F602
:1004F0002060091D088000201049091F08800F494D
:100500000C3108800D481038008840F060000B491D
:100510001039088009480838008840F00100074970
:100520000839088005482838008840F00100034950
:100530002839088070470000001002402808004059
:10054000044A116800BF034A1268521A8242FAD361
:10055000704700000000002010B503464FF47A7089
:1005600093FBF0F01B49C8804FF47A7093FBF0F1D5
:1005700000FB1130642190FBF1F016498880642063
:1005800093FBF0F100FB11300A2190FBF1F01149CF
:1005900048800A2093FBF0F100FB11300D490880E0
:1005A000002414E004F10C00012181400A4801609C
:1005B000084830F81400094931F81000084908606B
:1005C0000520FFF7BDFF002003490860641C042CD0
:1005D000E8DB10BD0C0000200C0C014014000020D2
:1005E0000C0801405048806940F00D004E49886178
:1005F0000846C06940F00400C8614C484C49086096
:100600004C48091D08604C484C4908604FF4F27092
:1006100047490C3108604A484849091F08600020D2
:100620004649083108604748C06840F00101454824
:10063000C1604548006840F01000434908604248E6
:100640000830006840F010003F490831086062B689
:100650000A20FFF78BFEFFF74FFEFFF73FFF3948F9
:10066000806840F00100374988603748006840F0F2
:1006700001003549086034480C30006840F0010042
:1006800031490C3108600620FFF770FE2B48001F2F
:10069000006820F040002949091F0860FFF7F2FDBB
:1006A00042F22831481EB0F1807F00D31BE0481E83
:1006B0004FF0E022506150170F22002807DA13078D
:1006C0001D0E224B00F00F04241F1D5503E01307DD
:1006D0001C0E1F4B1C5400BF00204FF0E022906105
:1006E0000720106100BF1DE01A48006840F00100BB
:1006F000184908604FF06632174B184903C900F0DB
:1007000035F806460022164B00F0B6F9044600F014
:1007100085F91449088014480088FFF71DFF05205B
:10072000FFF70EFFE0E70000001002402422222223
:10073000000801404244444444442222040C014045
:100740004444444B000001400004014018ED00E027
:1007500000E400E00824014066660A40280000200A
:100760000088D34034080040040000202DE9C04137
:1007700030B4DFF8A0C23CEA111418BF3CEA1314ED
:1007800000F0EC8081EA03051CEA111444EAD574F8
:1007900018BF1CEA131500F0C780A4EB05044FF046
:1007A000004545EAC12145EAC32341EA505143EAE5
:1007B000525304F17F74994204F500344FEAC0208B
:1007C0004FEAC22208BF904200F09C804FEA1365B6
:1007D0000FF24016765D4FEA134506FB05F7C7F1A9
:1007E000807706FB07F74FEAD737A7FB0368764207
:1007F000C8F58038A7FB06CE38BFA8F1010807FB73
:1008000008E64FF0000EA6FB028CE6FB03CEDCF1FF
:10081000000CCEF1004E38BFAEF1010EA6FB0C5815
:100820004FF000074FF00005E6FB0E87A1FB08C65E
:10083000A0FB07CE16EB0E0645F10005E1FB0765B0
:1008400015F1E04E7EBFA4F580345FEA46066D41A7
:1008500016F1800745F100054FEA17274FEA0666B3
:1008600047EA0567A6F1DE46B6F1805F4FEA152537
:100870001FD9384624F0010C05EBC471BCF1FE6FA2
:1008800001EB0C1102D8F0BCBDE8008124425CBF32
:1008900001F5801E9EEAC47F02D4F0BCBDE8008151
:1008A000244238D4F0BCA1F1C041BDE8004100F0C1
:1008B000DBB94FEAD22242EA43524FEAD323A7FBE5
:1008C00002864FEAD02040EA415007FB03661EEA49
:1008D0000E0F4FEAD12105FB026658BFA6EB00566A
:1008E000B6EB00564FEA520E4EEAC37E18EB0E0EE0
:1008F00056EB530EBDD518EB02085E417F1C55F137
:100900000005B6E74FF480154FF000074FF00006E2
:100910004FF00008ADE7F0BC4FF0000001F1C0411E
:1009200001F00041BDE8008111EA0C1F0CEA13152B
:1009300000D00CE013EA0C1F00F025804FF00000FF
:10094000F0BC81EA030101F00041BDE80081F0BC88
:10095000BDE8004181EA030100F086B9F0BCBDE8C2
:10096000004170B500F032F9097EFC3E00F007B896
:1009700081EA03014FF0000001F00041704781EA75
:10098000030100F071B9F0BCBDE800414FF0000078
:1009900021497047FFFDFBF9F7F5F4F2F0EEEDEBBE
:1009A000E9E8E6E4E3E1E0DEDDDBDAD8D7D5D4D36D
:1009B000D1D0CFCDCCCBCAC8C7C6C5C4C2C1C0BFB9
:1009C000BEBDBCBBBAB9B8B7B6B5B4B3B2B1B0AFBF
:1009D000AEADACABAAA9A8A8A7A6A5A4A3A3A2A1A3
:1009E000A09F9F9E9D9C9C9B9A999998979796955E
:1009F00095949393929191908F8F8E8E8D8C8C8BFA
:100A00008B8A898988888787868585848483838281
:100A1000828181800000FF070000F87F4FEA1153B8
:100A2000A3F58063D3F11E03A8BFD3F1200C08DB2C
:100A30004FF0004242EAC12252EA505232FA03F029
:100A4000704709420BD4102BC4BF0020704703F538
:100A5000787CBCF1FF3F05D04FF0FF3070474FF07E
:100A60000000704770B500F0B1F800BF49922480D3
:100A700000207047F0E70000DFF848C170B51CEABD
:100A8000111E1EBF1CEA13159EEA0C0F95EA0C0FEF
:100A900000F06F8081EA030423EA4C134EEAD47E0F
:100AA00021EA4C1141F4801143F48013AE44A1FBC0
:100AB000024CA0FB0365AEF17F7E361955EB0C05A9
:100AC000A1FB034C4CF10003A0FB021C16EB0C062F
:100AD000654153F10003094218BF46F0010613F4C3
:100AE000007F0BD14FEA03314FEA0530340341EA6E
:100AF000155140EA16506FF003020AE04FEAC32195
:100B00004FEAC520F40241EA555140EA56506FF0D1
:100B1000020202EB2E4201EB025585EACE710AD0A9
:100B20005FEA440C18BF24F0004450F1000041F18A
:100B3000000120EAD47040F2FE7C624500D270BD14
:100B4000A84214BF4FF080444FF04044002E08BF2D
:100B50000024BEF1806FA8BFA1F1C041BDE8704084
:100B600080F282804FF0000001F1C04101F00041AD
:100B700070479EEA0C0F0CEA131518BF95EA0C0F8C
:100B800006D04FF0000081EA030E0EF0004170BD68
:100B900000F01CF88900013E00F007B800F009B829
:100BA0004FEA430C5FEA5C5C08D081EA030100F085
:100BB0005BB84FEA410C5FEA5C5CF6D14FF0000095
:100BC000014970470000FF070000F87F0EF1020E98
:100BD0002EF0030E5EF8046B364205D4012A43EB77
:100BE000030515F5001F12D8012841EB010C1CF577
:100BF000001F0CD80ED14FEAD17C15F5001F0CEB6D
:100C00004C0C0CF1020C08BF4CEBD37C04E04FF011
:100C1000080C01E04FEAD37C0CEB4C0526FA05F6F4
:100C200006F00706B6F1040C06D20EEB860CBDE802
:100C300070404CF0010C6047DFE80CF0090B020239
:100C40004FF000414FF00000A1F5002170BD1946A2
:100C50001046012851EB010418BFD4F5001484BFDD
:100C6000002001F0004170BD0808A0F500114FEA16
:100C70003101704743004FEAD30C4FEA3C0C43402C
:100C80001FBF40070CF1605113F0FE4F70471CF07E
:100C9000006F03D100200CF0004170470CF00043BE
:100CA00043EA507010B540EACC0000F0E4F800BF11
:100CB000000000924FEA0001FFF7D6BF4FF000415D
:100CC0004FF00000A1F50021704700004FF47F0CA9
:100CD0001CEAD0121EBF1CEAD11392EA0C0F93EA51
:100CE0000C0F00F0858090EA010F48BF42F480723B
:100CF00040F4000C41F400002CF07F4120F07F40D4
:100D000000B58142A2EB03020FF2081CACEB504E7F
:100D1000C0F100009EF800E04FEA4E0E00FB0EFC12
:100D200038BF49004FEA2C1C02F5FA020CFB0EF307
:100D30004FEACE1E4FEA112C4FEAC1210EEB635E43
:100D400042EB22420EFB0CFC4FEA1C5300FB03114A
:100D50004FEA112C4FEA01310EFB0CFC4FEADC4C40
:100D600000FB0C11C14228BF09184CEB03335DF89E
:100D700004EB10EB410143EBC250B2F57C0F38BFDE
:100D8000704729D512F0F00F1CBF00F1C04000F0F1
:100D900000407047008182838485868788898B8C98
:100DA0008D8E8F919293959697999A9C9D9FA0A2D4
:100DB000A3A5A7A8AAACAEB0B2B3B5B7B9BCBEC024
:100DC000C2C5C7C9CCCED1D4D7D9DCDFE2E6E9ECC5
:100DD000F0F3F7FAFE0000004FEA400C0CF1807CC3
:100DE000BCF17E4F28BF7047B0F1C04000F089B819
:100DF00090EA010F0CEAD11348BF42F480726245B9
:100E000038BF634507D213F47F0F16D080EA010084
:100E100000F00040704710B500F02DF8097EFC3E50
:100E200000F005B880EA010000F00040704780EA59
:100E3000010000F0004000F064B812F47F0F04BF1E
:100E40000248704780EA010000F05BB80000C07FF4
:100E5000B0FA80F310FA03F2C3F19D030AD0D9056A
:100E600001EB1220530638BF704700F1010008BFA4
:100E700020F0010070470EF1020E2EF0030E5EF816
:100E8000044B244204D44FEA4102B2F17F4F11D8FF
:100E90004FEA4003B3F17F4F0CD80ED14FEAD07C1C
:100EA000B2F17F4F0CEB4C0C0CF1020C08BF4CEB79
:100EB000D17C04E04FF0080C01E04FEAD17C0CEB50
:100EC0004C0324FA03F404F00704B4F1040C06D232
:100ED0000EEB840CBDE810404CF0010C6047DFE8DD
:100EE0000CF0070802024FF00040A0F5800010BD92
:100EF0000846420018BFD2F1807288BF00F000405F
:100F000010BDFF2141EAD050C00570472C0F0008EA
:100F10000000002030000000280100085C0F0008DD
:100F200030000020600600004401000800000000BE
:100F300000000000000000000000000000000000B1
:100F4000070E3F0F4B0E1B0E330F930E830E3F0EFB
:0C0F5000030E130E000000000000000063
:04000005080000ED02
:00000001FF
